{
  "_format": "hh-sol-artifact-1",
  "contractName": "Copyright",
  "sourceName": "contracts/Copyright.sol",
  "abi": [
    {
      "inputs": [
        {
          "internalType": "bytes32",
          "name": "_artHash",
          "type": "bytes32"
        },
        {
          "internalType": "string",
          "name": "_ipfsHash",
          "type": "string"
        }
      ],
      "name": "registerArt",
      "outputs": [],
      "stateMutability": "nonpayable",
      "type": "function"
    },
    {
      "inputs": [
        {
          "internalType": "bytes32",
          "name": "_artHash",
          "type": "bytes32"
        }
      ],
      "name": "verifyArt",
      "outputs": [
        {
          "internalType": "address",
          "name": "",
          "type": "address"
        }
      ],
      "stateMutability": "view",
      "type": "function"
    }
  ],
  "bytecode": "0x6080604052348015600f57600080fd5b506109dd8061001f6000396000f3fe608060405234801561001057600080fd5b50600436106100365760003560e01c8063626117321461003b57806385ba026e14610057575b600080fd5b610055600480360381019061005091906104e6565b610087565b005b610071600480360381019061006c9190610542565b6101cc565b60405161007e91906105b0565b60405180910390f35b600073ffffffffffffffffffffffffffffffffffffffff1660008084815260200190815260200160002060000160009054906101000a900473ffffffffffffffffffffffffffffffffffffffff1673ffffffffffffffffffffffffffffffffffffffff161461012b576040517f08c379a000000000000000000000000000000000000000000000000000000000815260040161012290610628565b60405180910390fd5b60405180604001604052803373ffffffffffffffffffffffffffffffffffffffff1681526020018281525060008084815260200190815260200160002060008201518160000160006101000a81548173ffffffffffffffffffffffffffffffffffffffff021916908373ffffffffffffffffffffffffffffffffffffffff16021790555060208201518160010190816101c49190610869565b509050505050565b6000806000808481526020019081526020016000206040518060400160405290816000820160009054906101000a900473ffffffffffffffffffffffffffffffffffffffff1673ffffffffffffffffffffffffffffffffffffffff1673ffffffffffffffffffffffffffffffffffffffff16815260200160018201805461025290610682565b80601f016020809104026020016040519081016040528092919081815260200182805461027e90610682565b80156102cb5780601f106102a0576101008083540402835291602001916102cb565b820191906000526020600020905b8154815290600101906020018083116102ae57829003601f168201915b5050505050815250509050600073ffffffffffffffffffffffffffffffffffffffff16816000015173ffffffffffffffffffffffffffffffffffffffff1603610349576040517f08c379a000000000000000000000000000000000000000000000000000000000815260040161034090610987565b60405180910390fd5b8060000151915050919050565b6000604051905090565b600080fd5b600080fd5b6000819050919050565b61037d8161036a565b811461038857600080fd5b50565b60008135905061039a81610374565b92915050565b600080fd5b600080fd5b6000601f19601f8301169050919050565b7f4e487b7100000000000000000000000000000000000000000000000000000000600052604160045260246000fd5b6103f3826103aa565b810181811067ffffffffffffffff82111715610412576104116103bb565b5b80604052505050565b6000610425610356565b905061043182826103ea565b919050565b600067ffffffffffffffff821115610451576104506103bb565b5b61045a826103aa565b9050602081019050919050565b82818337600083830152505050565b600061048961048484610436565b61041b565b9050828152602081018484840111156104a5576104a46103a5565b5b6104b0848285610467565b509392505050565b600082601f8301126104cd576104cc6103a0565b5b81356104dd848260208601610476565b91505092915050565b600080604083850312156104fd576104fc610360565b5b600061050b8582860161038b565b925050602083013567ffffffffffffffff81111561052c5761052b610365565b5b610538858286016104b8565b9150509250929050565b60006020828403121561055857610557610360565b5b60006105668482850161038b565b91505092915050565b600073ffffffffffffffffffffffffffffffffffffffff82169050919050565b600061059a8261056f565b9050919050565b6105aa8161058f565b82525050565b60006020820190506105c560008301846105a1565b92915050565b600082825260208201905092915050565b7f41727420616c7265616479207265676973746572656400000000000000000000600082015250565b60006106126016836105cb565b915061061d826105dc565b602082019050919050565b6000602082019050818103600083015261064181610605565b9050919050565b600081519050919050565b7f4e487b7100000000000000000000000000000000000000000000000000000000600052602260045260246000fd5b6000600282049050600182168061069a57607f821691505b6020821081036106ad576106ac610653565b5b50919050565b60008190508160005260206000209050919050565b60006020601f8301049050919050565b600082821b905092915050565b6000600883026107157fffffffffffffffffffffffffffffffffffffffffffffffffffffffffffffffff826106d8565b61071f86836106d8565b95508019841693508086168417925050509392505050565b6000819050919050565b6000819050919050565b600061076661076161075c84610737565b610741565b610737565b9050919050565b6000819050919050565b6107808361074b565b61079461078c8261076d565b8484546106e5565b825550505050565b600090565b6107a961079c565b6107b4818484610777565b505050565b5b818110156107d8576107cd6000826107a1565b6001810190506107ba565b5050565b601f82111561081d576107ee816106b3565b6107f7846106c8565b81016020851015610806578190505b61081a610812856106c8565b8301826107b9565b50505b505050565b600082821c905092915050565b600061084060001984600802610822565b1980831691505092915050565b6000610859838361082f565b9150826002028217905092915050565b61087282610648565b67ffffffffffffffff81111561088b5761088a6103bb565b5b6108958254610682565b6108a08282856107dc565b600060209050601f8311600181146108d357600084156108c1578287015190505b6108cb858261084d565b865550610933565b601f1984166108e1866106b3565b60005b82811015610909578489015182556001820191506020850194506020810190506108e4565b868310156109265784890151610922601f89168261082f565b8355505b6001600288020188555050505b505050505050565b7f417274206e6f7420726567697374657265640000000000000000000000000000600082015250565b60006109716012836105cb565b915061097c8261093b565b602082019050919050565b600060208201905081810360008301526109a081610964565b905091905056fea2646970667358221220beea42c87f1cec4cc799c958435f5290dea2af5deccc37685e14dfe7c7b564de64736f6c634300081c0033",
  "linkReferences": {},
  "deployedLinkReferences": {}
}